:03000000020800F3
:0C080000787FE4F6D8FD758107020847F8
:040A1100410004F0AC
:08088C00E004F0E090E800F048
:100894009000001208F800000000E47F947E11FD2F
:1008A400FC900000E0F8A3E0F9A3E0FAA3E0FBD396
:1008B4001208DB5021900000E0FCA3E0FDA3E0FE61
:1008C400A3E02401FFE43EFEE43DFDE43CFC900093
:0708D400001208EC80C422B1
:1009FB00900004E0540FF090E800F044F0900004F5
:060A0B00F090E800F0226B
:1009BB00900005E024F9602624FC601224FE702FC1
:1009CB00900004E0C394F3502312088C80F2900043
:1009DB0004E0C394F6500512088C80F2800E900050
:1009EB0004E0C394F9500512088C80F21209FB2223
:10097600900005E024F5601724FD6025047035908D
:100986000004E0D394F34029E01412088E80F0901E
:100996000004E0D394F64007E01412088E80F0803D
:1009A60010900004E0D394F04007E01412088E8003
:0509B600F01209FB2214
:1009290090E8037482F090E80074F0F090000A7483
:100939000EF090E801E0900005F0540FF0640F60AC
:100949002290000AE0FF900005E0FE6F6015EEC3FB
:100959009F50051209BB8003120976900005E090AB
:0D096900000AF090E801E0900005F080C564
:10080C00020929E493A3F8E493A34003F68001F2D0
:10081C0008DFF48029E493A3F85407240CC8C333ED
:10082C00C4540F4420C8834004F456800146F6DFBC
:10083C00E4800B0102040810204080900A11E47E31
:10084C00019360BCA3FF543F30E509541FFEE493B1
:10085C00A360010ECF54C025E060A840B8E493A378
:10086C00FAE493A3F8E493A3C8C582C8CAC583CAA3
:10087C00F0A3C8C582C8CAC583CADFE9DEE780BE5B
:010A150000E0
:1008DB00EB9FF5F0EA9E42F0E99D42F0E89C45F073
:0108EB0022EA
:0C08EC00ECF0A3EDF0A3EEF0A3EFF0227F
:1008F800A8828583F0D083D08212090F12090F12C3
:10090800090F12090FE473E493A3C583C5F0C583E7
:10091800C8C582C8F0A3C583C5F0C583C8C582C849
:0109280022AC
:00000001FF
